:020000040800F2
:10000000A8060020CD0100085D070008650600086D
:100010005907000891040008B5110008000000000D
:10002000000000000000000000000000950D000826
:10003000D90400080000000031080008410F000842
:10004000E3010008E3010008E30100082D0B0008AC
:10005000E3010008E3010008DB040008E3010008F5
:10006000E3010008E3010008E3010008E3010008E0
:10007000E3010008E3010008E3010008E3010008D0
:10008000E3010008E3010008E3010008E3010008C0
:10009000E3010008E3010008E3010008E3010008B0
:1000A000E3010008E3010008E3010008E3010008A0
:1000B000E3010008CD0F0008E3010008E301000898
:1000C000E3010008E3010008E3010008E301000880
:1000D000E3010008E3010008E3010008E301000870
:1000E000E3010008E3010008E3010008E301000860
:1000F000E3010008E3010008E3010008E301000850
:10010000E3010008E3010008E3010008E30100083F
:10011000E3010008E3010008E3010008E30100082F
:10012000E3010008E3010008E3010008E30100081F
:1001300000F002F800F03AF80AA090E8000C8244BF
:100140008344AAF10107DA4501D100F02FF8AFF29C
:10015000090EBAE80F0013F0010F18BFFB1A43F0A5
:10016000010318470814000028140000103A24BFA7
:1001700078C878C1FAD8520724BF30C830C144BF0C
:1001800004680C607047000000230024002500264E
:10019000103A28BF78C1FBD8520728BF30C148BFEA
:1001A0000B6070471FB51FBD10B510BD00F02DF8D6
:1001B0001146FFF7F7FF01F083F800F04BF803B4A6
:1001C000FFF7F2FF03BC00F053F8000008480047B7
:1001D000FEE7FEE7FEE7FEE7FEE7FEE7FEE7FEE7F7
:1001E000FEE7FEE703480449044A054B7047000058
:1001F00031010008A8000020A8060020A802002065
:10020000A8020020704770477047754600F02CF830
:10021000AE4605006946534620F00700854618B0F3
:1002200020B5FFF7DFFFBDE820404FF000064FF09C
:1002300000074FF000084FF0000B21F00701AC461B
:10024000ACE8C009ACE8C009ACE8C009ACE8C0093A
:100250008D46704710B50446AFF300802046BDE8D8
:100260001040FFF7ACBF000000487047440000207A
:1002700001491820ABBEFEE726000200704721B1FD
:10028000826842F00102826003E0826822F001028B
:100290008260704710B504461248844208D101219B
:1002A000401500F0F3FA0021601500F0EFFA17E0B6
:1002B0000D48844208D10121001500F0E7FA002121
:1002C000201500F0E3FA0BE00848844208D1012130
:1002D000C80300F0DBFA00214FF4004000F0D6FA2A
:1002E00010BD00000024014000280140003C0140F6
:1002F000014600208A6802F004020AB1012000E0F1
:1003000000207047014600208A6802F008020AB106
:10031000012000E00020704730B502460020002395
:1003200050680F4C20400D790C6844EA05242043A6
:10033000506090680B4C2040D1E902542C434D7919
:1003400044EA450420439060D06A20F470000C7C9D
:10035000641EE4B2234340EA0350D06230BD000083
:10036000FFFEF0FFFDF7F1FF816841F008018160B9
:100370007047816841F004018160704700B587B023
:1003800001214FF4017000F071FA4FF4404000F089
:1003900051FA0220ADF8040000208DF8070001A9F1
:1003A000174800F0C7F81748FFF774FF00200290C5
:1003B0008DF80C008DF80D004FF4602004900020A3
:1003C000059001208DF8180002A90E48FFF7A4FF40
:1003D00001210C48FFF753FF0A48FFF7C5FF00BF94
:1003E0000848FFF78FFF0028FAD10648FFF7C1FF42
:1003F00000BF0448FFF77CFF0028FAD107B000BD1A
:10040000000801400024014008B50121042000F04B
:100410002DFA10208DF80300ADF8000001208DF8B2
:1004200002006946034800F085F81021014800F0F9
:1004300015F908BD00080140024B988019809A7197
:10044000704700002400002010B5012000F02EFAB3
:10045000002000F02BFA10BD08B5014600200090E6
:10046000034800900098084400900098008808BD58
:10047000006C004008B500220092044A0092009AE5
:1004800002440092009A116008BD0000006C004018
:1004900000BFFEE710B5002410210D4800F0E0F881
:1004A00015E00C48006860B1601CC4B2032000F085
:1004B000A5FE642C0BDB1021054800F0D1F80120CB
:1004C00010BD1021024800F0C9F80020F8E7E8E765
:1004D0000008014000012142704710B5012000F0E2
:1004E00007F8FFF7D7FF08B100F02BFD10BD0000A3
:1004F00001490860704700001404014008B501215B
:10050000082000F0B3F910208DF803004FF4FC40F0
:10051000ADF8000001208DF802006946044800F0A3
:1005200009F84FF4FC41024800F098F808BD0000BB
:10053000000C01402DE9F041024600250026002074
:1005400000230024002791F803C00CF00F0591F858
:1005500003C00CF0100CBCF1000F03D091F802C0E6
:100560004CEA050591F800C0BCF1000F31D01468C9
:1005700000202BE04FF0010C0CFA00F3B1F800C0A2
:100580000CEA03069E4220D183004FF00F0C0CFAB8
:1005900003F7BC4305FA03FC4CEA040491F803C0DA
:1005A000BCF1280F06D14FF0010C0CFA00FCC2F888
:1005B00014C00AE091F803C0BCF1480F05D14FF018
:1005C000010C0CFA00FCC2F810C0401C0828D1D362
:1005D0001460B1F800C0BCF1FF0F34DD5468002096
:1005E0002EE000F1080C4FF0010808FA0CF3B1F806
:1005F00000C00CEA03069E4221D183004FF00F0C8D
:100600000CFA03F7BC4305FA03FC4CEA040491F826
:1006100003C0BCF1280F05D100F1080C08FA0CF852
:10062000C2F8148091F803C0BCF1480F07D100F163
:10063000080C4FF0010808FA0CF8C2F81080401CB2
:100640000828CED35460BDE8F081024600209368AC
:100650000B400BB1012000E0002070474161704762
:100660000161704700BFFEE70146CA1701EB9272B5
:100670009210A1EB820292B9642091FBF0F200FB90
:10068000121050B94FF4C87091FBF0F200FB121039
:1006900008B9012070470020FCE70120FAE700209C
:1006A000F8E7000070B5044614B10120284908702D
:1006B00027480078A8B380212648FFF7C6FF08B96D
:1006C000012500E0002540212248FFF7BEFF08B9C0
:1006D000012000E00020054320211E48FFF7B5FF60
:1006E00008B9012000E000200543D5B1052000F045
:1006F00085FD00201649087080211648FFF7A5FFE8
:1007000008B9012070BD40211248FFF79EFF08B9CB
:100710000220F7E720210F48FFF797FFB0B9032029
:10072000F0E7FFE780210B48FFF78FFF01280DD18D
:1007300040210848FFF789FF012807D120210548FB
:10074000FFF783FF012801D1014908700020D9E794
:10075000340000200008014000BFFEE770470000A1
:1007600070B5002100230F22C47804B3154C24680F
:1007700004F4E064C4F5E064210AC1F10403CA4052
:10078000447804FA03F184781440214309010E4CA3
:100790000678A155047804F01F050124AC400578C3
:1007A0006D11AD0005F1E025C5F8004109E00478C0
:1007B00004F01F050124AC40044D0678761145F87D
:1007C000264070BD0CED00E000E400E080E100E0B8
:1007D00002490143024A1160704700000000FA0517
:1007E0000CED00E0014908627047000000000E4275
:1007F0000A48006840F0040008490860084600689C
:1008000040F0020008600648006840F00400044917
:10081000086000BF00BF30BF70470000007000409C
:1008200010ED00E00149086070470000A0000E4292
:100830007047000001460020034A506820F4404001
:1008400008435060704700000010024029B1064A7A
:10085000D2690243044BDA6104E0034AD26982435D
:10086000014BDA61704700000010024029B1064ACE
:1008700092690243044B9A6104E0034A92698243FD
:10088000014B9A61704700000010024029B1064AEE
:10089000D2680243044BDA6004E0034AD268824320
:1008A000014BDA6070470000001002400149086007
:1008B000704700004004424210B501460022002368
:1008C00000204A11012A02D1094C236806E0022ABD
:1008D00002D1074C236A01E0054C636A01F01F0254
:1008E000012494401C400CB1012000E0002010BD08
:1008F0000010024000210B4A11700A4A203A82F887
:100900002010012802D0042808D103E00121054A63
:10091000117004E00521034A117000E000BF00BF20
:100920007047000020100240014908607047000035
:100930003C0442420249096A0143014A116270477C
:1009400000100240024909888143014A1180704722
:10095000042800400348008840F010000149088046
:100960007047000004280040034800884FF6EF71EC
:1009700008400149088070470428004070B50026EF
:100980000024002500F07AF806463848B6FBF0F45B
:1009900037480088A0423CD035490C8040F2B275FF
:1009A00010E02846FFF760FE40B1B4F5B77F02D3F0
:1009B000A4F5B77404E0681C85B206E0A4F26D14D7
:1009C000681C85B2B4F5B67FEBD800BF2948858096
:1009D000002516E027498888FFF746FE30B1012D33
:1009E00004D11D2C01D31D3C09E00CE02248405DE0
:1009F000A04203D82048405D241A00E003E0681CB0
:100A000085B21C2CE6D200BF681C1A498871601C94
:100A1000C8711648B6FBF0F100FB11644FF4616039
:100A2000B4FBF0F0134908704FF46160B4FBF0F1CF
:100A300000FB11403C21B0FBF1F00E4948704FF42F
:100A40006160B4FBF0F100FB11403C21B0FBF1F21E
:100A500001FB1200074988700B46DA79997998886A
:100A600000F028F803490872002070BD8051010091
:100A70002C000020380000206015000800210348E9
:100A80000188001F008841EA004070471C28004090
:100A900001460020064A12880A40D0B2044A121FBA
:100AA00012880A4012B108B1012000E0002070470E
:100AB00004280040F0B503460C461546642093FB1D
:100AC000F0F0C6B2642093FBF0F700FB1730C1B220
:100AD000132E02DD01F16400C1B20846CF1701EB0D
:100AE000977701EBA707BAB2072092FBF0F700FB5C
:100AF000172082B25719601EDFF82CC01CF80000C6
:100B0000384482B2CF1701EB9777BF10A1EB87076C
:100B10001FB9032C01DA501E82B2072092FBF0F7B6
:100B200000FB1720C0B2F0BD5415000810B501201D
:100B3000FFF7AEFF08B1FFF721FF0220FFF7A8FF84
:100B400020B10220FFF7FEFEFFF718FF0520FFF798
:100B5000F9FE00F003F910BD29B1064A12880243DC
:100B6000044B1A8004E0034A12888243014B1A8026
:100B700070470000002800401CB5002401214FF000
:100B8000C050FFF763FE0120FFF72CFE0420FFF7A3
:100B900063FC45F25501884240D0FFF755FC012027
:100BA000FFF7A8FE04E0601CC4B20A2000F026FB98
:100BB0004120FFF781FE08B9FA2CF4DBFA2C01DBA7
:100BC00001201CBD4FF48070FFF7B4FE0120FFF739
:100BD000ABFE00F0C3F800F0CBF801210846FFF7A8
:100BE000BBFF00F0BBF8FFF7B5FE47F6FF7000F063
:100BF000A5F800F0B3F837202A2111230E22CDE901
:100C00000010012140F2DF7000F026F8FFF7ACFE83
:100C100045F255010420FFF72DFC07E000F0A8F88D
:100C200001210846FFF798FF00F098F800F004F85B
:100C3000FFF7A4FE0020C4E708B503208DF80000EC
:100C400000208DF801008DF8020001208DF80300CE
:100C50006846FFF785FD08BD2DE9F05F06460F46A3
:100C600090469946DDE90AAB002440F2B270864214
:100C700003DB40F63300864202DD0120BDE8F09F31
:100C800040F2B2750AE02846FFF7EEFC10B12048AA
:100C9000044401E01F480444681C85B2B542F2DBFD
:100CA000781EC7B2002510E01B48405D40F2A3212A
:100CB000484304EBC0143046FFF7D6FC18B1012DB1
:100CC00001D116480444681C85B2BD42ECDBA8F192
:100CD000010040F2A321484304EBC014C9EB4910C2
:100CE000C0EB092004EB0014CAEB0A1004EB8004EB
:100CF0005C4401214FF0C050FFF7A8FD0120FFF731
:100D000071FD204600F00CF800F028F80020B5E74F
:100D10000085E2018033E101601500088051010087
:100D200000B50246FFF716FE100C03490880091DA6
:100D30000A80FFF719FE00BD1828004000B50246E2
:100D4000FFF708FEC2F3034003490880091D0A802B
:100D5000FFF70AFE00BD00000828004000BF03485E
:100D6000008800F020000028F9D0704704280040D7
:100D7000074800884FF6F77108400549088000BF12
:100D80000348008800F008000028F9D070470000F0
:100D9000042800407047000070B504460D46002648
:100DA00026E0E0111F4908606006040E4FF4006160
:100DB0001D48FFF755FC012000F046FA4FF4006192
:100DC0001948FFF74BFCE8111849C1F8B001680653
:100DD000050E4FF480411448FFF742FC012000F05B
:100DE00033FA4FF480411048FFF738FC701CC6B24C
:100DF000082ED6DB4FF480610B48FFF731FC4FF42F
:100E000000510948FFF72CFC012000F01DFA4FF4B7
:100E100080610548FFF722FC4FF400510248FFF7BC
:100E20001DFC70BDA4812142000C014000802142C4
:100E300010B500F001F810BD0CB500200190009035
:100E40003348006840F480303149086000BF3048C2
:100E5000006800F4003000900198401C0190009858
:100E600018B90198B0F5A06FF1D12948006800F4D5
:100E7000003010B10120009001E0002000900098A7
:100E8000012843D12348006840F010002149086040
:100E90000846006820F0030008600846006840F03B
:100EA000010008601A4840681949486008464068CF
:100EB00048600846406840F48060486008464068E2
:100EC00020F47C1048600846406840F4A020486048
:100ED0000846006840F08070086000BF0C48006859
:100EE00000F000700028F9D00948406820F00300A5
:100EF000074948600846406840F00200486000BF6B
:100F00000348406800F00C000828F9D10CBD00002F
:100F10000010024000200240042808D14FF0E021D8
:100F2000096941F004014FF0E022116107E04FF040
:100F3000E021096921F004014FF0E02211617047BE
:100F4000704710B500214FF4FE70FFF79FFC00F0D2
:100F500001F810BD10B501210807FFF777FC01204B
:100F6000FFF760FCFFF744FC10BD000010B513480C
:100F7000006840F0010011490860084640681049C7
:100F800008400E494860084600680E4908400B4971
:100F900008600846006820F4802008600846406821
:100FA00020F4FE0048604FF41F008860FFF740FF08
:100FB0004FF000600449086010BD000000100240BE
:100FC0000000FFF8FFFFF6FE08ED00E010B501217C
:100FD0001F4800F082F8002839D001211C4800F099
:100FE0006DF81C480088002823DD1A480088401E40
:100FF0001849088010211848FFF732FB154800886F
:1010000078B91448807900280BDD10211248FFF7C9
:1010100025FB10488079401E0E498871084680885B
:1010200048800C48807990B910210B48FFF716FBD7
:101030000DE008484088002809DD06484088401E29
:10104000044948800846408808B91420088010BD2B
:101050000004004024000020000801407FB5054640
:101060000C4601210220FFF7F1FBADF80850ADF866
:1010700004400020ADF80A00ADF8060001A90E48B2
:1010800000F046F8012211460B4800F037F81D2009
:101090008DF8000000208DF8010003208DF802007B
:1010A00001208DF803006846FFF75AFB0121024832
:1010B00000F007F87FBD000000040040CA43028230
:1010C000704721B1028842F00102028004E00288E8
:1010D0004FF6FE731A400280704730B5024600207A
:1010E00000230024158A05EA0103958905EA010415
:1010F00013B10CB1012000E0002030BD1AB183898A
:101100000B43838102E083898B4383817047000016
:10111000002202881D4B98420ED01D4B98420BD0E6
:10112000B0F1804F08D01B4B984205D01A4B984223
:1011300002D01A4B984204D14FF68F731A404B8855
:101140001A43174B984207D0164B984204D04FF6DB
:10115000FF431A40CB881A4302808B8883850B8813
:1011600003850A4B98420BD0094B984208D00E4B8E
:10117000984205D00D4B984202D00D4B984201D1B8
:101180000B7A03860123838270470000002C014004
:10119000003401400004004000080040000C004002
:1011A0000010004000140040004001400044014095
:1011B0000048014000BFFEE710B56FF00400FFF7E4
:1011C000ABFE0A4800680A49B0FBF1F00949087013
:1011D0000846007800EB4001C1EBC0104FF6FF71EC
:1011E00001EAC0000449088010BD00000C00002086
:1011F00000127A0020000020220000200146114A3F
:1012000012884A434FF0E0235A6100229A611A463D
:10121000126942F001021A6100BF4FF0E02210692A
:1012200000F001021AB100F48032002AF5D04FF02C
:10123000E022126922F001024FF0E0231A6100223D
:101240009A617047220000200146114A12784A43F1
:101250004FF0E0235A6100229A611A46126942F067
:1012600001021A6100BF4FF0E022106900F0010294
:101270001AB100F48032002AF5D04FF0E022126952
:1012800022F001024FF0E0231A6100229A617047B8
:101290002000002010B50020FFF704FA03280AD12F
:1012A00006484079401C05494871084640790228A3
:1012B00001DD00204871002010BD00002E0000203C
:1012C000FFF754FE4FF4A060FFF782FAFFF774FFB8
:1012D000FFF79AF8FFF712F9FFF74EFCFFF74EF809
:1012E00041F2BF216320FFF7B9FE0A220F2114202B
:1012F000FFF7A2F827E1FFF7CDFF9348407920B12F
:10130000012874D0022870D19AE0FF210020FFF755
:1013100043FD8E4800780A2190FBF1F08C490C5C6B
:1013200021460120FFF738FDFF210020FFF734FDA3
:10133000864800780A2190FBF1F201FB12008449F3
:101340000C5C21460220FFF727FDFF210020FFF75C
:1013500023FDBF210420FFF71FFDFF210020FFF721
:101360001BFD7A4840780A2190FBF1F078490C5C2B
:1013700021460820FFF710FDFF210020FFF70CFD9C
:10138000724840780A2190FBF1F201FB120070498B
:101390000C5C21461020FFF7FFFCFF210020FFF727
:1013A000FBFCBF212020FFF7F7FCFF210020FFF707
:1013B000F3FC664880780A2190FBF1F064490C5CEC
:1013C00021464020FFF7E8FCFF210020FFF7E4FC66
:1013D0005E4880780A2190FBF1F201FB12005C4923
:1013E0000C5C21468020FFF7D7FC8CE0FFE7FF2153
:1013F0000020FFF7D1FC89210420FFF7CDFCFF215D
:101400000020FFF7C9FC86210820FFF7C5FCFF215B
:101410000020FFF7C1FCC7211020FFF7BDFCFF2112
:101420000020FFF7B9FCC7212020FFF7B5FCFF2102
:101430000020FFF7B1FCC0214020FFF7ADFC62E0C7
:10144000FF210020FFF7A8FC3F4840780A2190FBCD
:10145000F1F03F490C5C21460120FFF79DFCFF2184
:101460000020FFF799FC384840780A2190FBF1F200
:1014700001FB120036490C5C21460220FFF78CFC70
:10148000FF210020FFF788FCBF210420FFF784FC28
:10149000FF210020FFF780FC2B48C0780A2190FB39
:1014A000F1F02B490C5C21460820FFF775FCFF2169
:1014B0000020FFF771FC2448C0780A2190FBF1F26C
:1014C00001FB120022490C5C21461020FFF764FC4E
:1014D000FF210020FFF760FCBF212020FFF75CFC0C
:1014E000FF210020FFF758FC194801784020FFF742
:1014F00053FCFF210020FFF74FFC154801788020A6
:10150000FFF74AFC00BF00BF0F4840780F49097839
:1015100088420DD10C48C0780C494978884207D1DF
:101520000A48807820B914220A211046FEF784FF69
:101530000648807838B90548407820B90122322120
:101540006420FEF779FFD6E62E0000203800002048
:101550000000002000030306010406020500030545
:101560001F1C1F1E1F1E1F1F1E1F1E1F8C15000865
:1015700000000020380000006C010008C4150008BD
:10158000380000207006000088010008C0F9A4B0EF
:10159000999282F880900000006CDC02000000004C
:1015A0000000000001020304060708090000000013
:1015B000000000000000000000000000000000002B
:0415C0000100000026
:04000005080001CD21
:00000001FF
